{
  "contractName": "Oracle",
  "abi": [
    {
      "inputs": [],
      "stateMutability": "nonpayable",
      "type": "constructor"
    },
    {
      "anonymous": false,
      "inputs": [
        {
          "indexed": false,
          "internalType": "uint256",
          "name": "userId",
          "type": "uint256"
        },
        {
          "indexed": false,
          "internalType": "string",
          "name": "response",
          "type": "string"
        }
      ],
      "name": "FulfillUserData",
      "type": "event"
    },
    {
      "anonymous": false,
      "inputs": [
        {
          "indexed": false,
          "internalType": "uint256",
          "name": "userId",
          "type": "uint256"
        },
        {
          "indexed": false,
          "internalType": "address",
          "name": "requester",
          "type": "address"
        }
      ],
      "name": "RequestUserData",
      "type": "event"
    },
    {
      "inputs": [],
      "name": "owner",
      "outputs": [
        {
          "internalType": "address",
          "name": "",
          "type": "address"
        }
      ],
      "stateMutability": "view",
      "type": "function"
    },
    {
      "inputs": [
        {
          "internalType": "uint256",
          "name": "",
          "type": "uint256"
        }
      ],
      "name": "pendingRequests",
      "outputs": [
        {
          "internalType": "address",
          "name": "",
          "type": "address"
        }
      ],
      "stateMutability": "view",
      "type": "function"
    },
    {
      "inputs": [
        {
          "internalType": "uint256",
          "name": "userId",
          "type": "uint256"
        }
      ],
      "name": "requestUserData",
      "outputs": [],
      "stateMutability": "nonpayable",
      "type": "function"
    },
    {
      "inputs": [
        {
          "internalType": "uint256",
          "name": "userId",
          "type": "uint256"
        },
        {
          "internalType": "string",
          "name": "response",
          "type": "string"
        }
      ],
      "name": "fulfillUserData",
      "outputs": [],
      "stateMutability": "nonpayable",
      "type": "function"
    }
  ],
  "bytecode": "0x608060405234801561000f575f80fd5b50335f806101000a81548173ffffffffffffffffffffffffffffffffffffffff021916908373ffffffffffffffffffffffffffffffffffffffff1602179055506109c18061005c5f395ff3fe608060405234801561000f575f80fd5b506004361061004a575f3560e01c80633c652a9a1461004e5780638da5cb5b1461007e578063a54c581e1461009c578063c72bd999146100b8575b5f80fd5b61006860048036038101906100639190610568565b6100d4565b60405161007591906105d2565b60405180910390f35b610086610104565b60405161009391906105d2565b60405180910390f35b6100b660048036038101906100b1919061064c565b610127565b005b6100d260048036038101906100cd9190610568565b610404565b005b6001602052805f5260405f205f915054906101000a900473ffffffffffffffffffffffffffffffffffffffff1681565b5f8054906101000a900473ffffffffffffffffffffffffffffffffffffffff1681565b5f8054906101000a900473ffffffffffffffffffffffffffffffffffffffff1673ffffffffffffffffffffffffffffffffffffffff163373ffffffffffffffffffffffffffffffffffffffff16146101b4576040517f08c379a00000000000000000000000000000000000000000000000000000000081526004016101ab90610703565b60405180910390fd5b5f60015f8581526020019081526020015f205f9054906101000a900473ffffffffffffffffffffffffffffffffffffffff1690505f73ffffffffffffffffffffffffffffffffffffffff168173ffffffffffffffffffffffffffffffffffffffff1603610256576040517f08c379a000000000000000000000000000000000000000000000000000000000815260040161024d9061076b565b60405180910390fd5b5f8173ffffffffffffffffffffffffffffffffffffffff16858585604051602401610283939291906107e2565b6040516020818303038152906040527fa54c581e000000000000000000000000000000000000000000000000000000007bffffffffffffffffffffffffffffffffffffffffffffffffffffffff19166020820180517bffffffffffffffffffffffffffffffffffffffffffffffffffffffff838183161783525050505060405161030d919061087e565b5f604051808303815f865af19150503d805f8114610346576040519150601f19603f3d011682016040523d82523d5f602084013e61034b565b606091505b505090508061038f576040517f08c379a0000000000000000000000000000000000000000000000000000000008152600401610386906108de565b60405180910390fd5b7f05fa0f2ce7651043be724c0eb9893c590deabde24553e695d0eac7bd996d07338585856040516103c2939291906107e2565b60405180910390a160015f8681526020019081526020015f205f6101000a81549073ffffffffffffffffffffffffffffffffffffffff02191690555050505050565b5f73ffffffffffffffffffffffffffffffffffffffff1660015f8381526020019081526020015f205f9054906101000a900473ffffffffffffffffffffffffffffffffffffffff1673ffffffffffffffffffffffffffffffffffffffff16146104a2576040517f08c379a000000000000000000000000000000000000000000000000000000000815260040161049990610946565b60405180910390fd5b3360015f8381526020019081526020015f205f6101000a81548173ffffffffffffffffffffffffffffffffffffffff021916908373ffffffffffffffffffffffffffffffffffffffff1602179055507f13f17d489ce56966165e78d9192fcf6bfdc3682208fd23c2ee9128bd5ff9b6d28133604051610522929190610964565b60405180910390a150565b5f80fd5b5f80fd5b5f819050919050565b61054781610535565b8114610551575f80fd5b50565b5f813590506105628161053e565b92915050565b5f6020828403121561057d5761057c61052d565b5b5f61058a84828501610554565b91505092915050565b5f73ffffffffffffffffffffffffffffffffffffffff82169050919050565b5f6105bc82610593565b9050919050565b6105cc816105b2565b82525050565b5f6020820190506105e55f8301846105c3565b92915050565b5f80fd5b5f80fd5b5f80fd5b5f8083601f84011261060c5761060b6105eb565b5b8235905067ffffffffffffffff811115610629576106286105ef565b5b602083019150836001820283011115610645576106446105f3565b5b9250929050565b5f805f604084860312156106635761066261052d565b5b5f61067086828701610554565b935050602084013567ffffffffffffffff81111561069157610690610531565b5b61069d868287016105f7565b92509250509250925092565b5f82825260208201905092915050565b7f4f6e6c7920746865206f776e65722063616e2063616c6c2074686973000000005f82015250565b5f6106ed601c836106a9565b91506106f8826106b9565b602082019050919050565b5f6020820190508181035f83015261071a816106e1565b9050919050565b7f52657175657374206e6f7420666f756e640000000000000000000000000000005f82015250565b5f6107556011836106a9565b915061076082610721565b602082019050919050565b5f6020820190508181035f83015261078281610749565b9050919050565b61079281610535565b82525050565b828183375f83830152505050565b5f601f19601f8301169050919050565b5f6107c183856106a9565b93506107ce838584610798565b6107d7836107a6565b840190509392505050565b5f6040820190506107f55f830186610789565b81810360208301526108088184866107b6565b9050949350505050565b5f81519050919050565b5f81905092915050565b5f5b83811015610843578082015181840152602081019050610828565b5f8484015250505050565b5f61085882610812565b610862818561081c565b9350610872818560208601610826565b80840191505092915050565b5f610889828461084e565b915081905092915050565b7f43616c6c6261636b206661696c656400000000000000000000000000000000005f82015250565b5f6108c8600f836106a9565b91506108d382610894565b602082019050919050565b5f6020820190508181035f8301526108f5816108bc565b9050919050565b7f5265717565737420616c72656164792070656e64696e670000000000000000005f82015250565b5f6109306017836106a9565b915061093b826108fc565b602082019050919050565b5f6020820190508181035f83015261095d81610924565b9050919050565b5f6040820190506109775f830185610789565b61098460208301846105c3565b939250505056fea264697066735822122080a5658090f682a04ed137a67facb2475d91417fbc63bf499b88968ff0b6a90164736f6c63430008150033",
  "immutableReferences": {},
  "source": "pragma solidity ^0.8.0;\r\n\r\ncontract Oracle {\r\n    address public owner;\r\n    mapping(uint256 => address) public pendingRequests;\r\n\r\n    event RequestUserData(uint256 userId, address requester);\r\n    event FulfillUserData(uint256 userId, string response);\r\n\r\n    // Constructor\r\n    constructor() {\r\n        owner = msg.sender;\r\n    }\r\n\r\n    modifier onlyOwner() {\r\n        require(msg.sender == owner, \"Only the owner can call this\");\r\n        _;\r\n    }\r\n\r\n    function requestUserData(uint256 userId) external {\r\n        require(pendingRequests[userId] == address(0), \"Request already pending\");\r\n        pendingRequests[userId] = msg.sender;\r\n        emit RequestUserData(userId, msg.sender);\r\n    }\r\n\r\n    function fulfillUserData(uint256 userId, string calldata response) external onlyOwner {\r\n        address requester = pendingRequests[userId];\r\n        require(requester != address(0), \"Request not found\");\r\n\r\n        // Notify the requester\r\n        (bool success, ) = requester.call(\r\n            abi.encodeWithSignature(\"fulfillUserData(uint256,string)\", userId, response)\r\n        );\r\n        require(success, \"Callback failed\");\r\n\r\n        emit FulfillUserData(userId, response);\r\n\r\n        // Cleanup\r\n        delete pendingRequests[userId];\r\n    }\r\n}\r\n",
  "sourcePath": "C:\\Users\\mm\\Downloads\\blockchain\\contracts\\Oracle.sol",
  "compiler": {
    "name": "solc",
    "version": "0.8.21+commit.d9974bed.Emscripten.clang"
  },
  "schemaVersion": "3.4.16",
  "updatedAt": "2024-12-10T06:40:28.939Z",
  "devdoc": {
    "kind": "dev",
    "methods": {},
    "version": 1
  },
  "userdoc": {
    "kind": "user",
    "methods": {},
    "version": 1
  }
}