{
  "contractName": "OrderAPI",
  "abi": [
    {
      "anonymous": false,
      "inputs": [
        {
          "indexed": false,
          "internalType": "string",
          "name": "response",
          "type": "string"
        }
      ],
      "name": "APIResponse",
      "type": "event"
    },
    {
      "inputs": [
        {
          "internalType": "string",
          "name": "apiUrl",
          "type": "string"
        }
      ],
      "name": "fetchOrderData",
      "outputs": [],
      "stateMutability": "nonpayable",
      "type": "function"
    }
  ],
  "bytecode": "0x608060405234801561000f575f80fd5b506103ab8061001d5f395ff3fe608060405234801561000f575f80fd5b5060043610610029575f3560e01c8063c954ac461461002d575b5f80fd5b610047600480360381019061004291906101ef565b610049565b005b7f11c163839f8ee03e5cb5a6ae54222f51f34efa3d34acfad0644d79e916ca865a8160405160200161007b91906102ec565b6040516020818303038152906040526040516100979190610355565b60405180910390a150565b5f604051905090565b5f80fd5b5f80fd5b5f80fd5b5f80fd5b5f601f19601f8301169050919050565b7f4e487b71000000000000000000000000000000000000000000000000000000005f52604160045260245ffd5b610101826100bb565b810181811067ffffffffffffffff821117156101205761011f6100cb565b5b80604052505050565b5f6101326100a2565b905061013e82826100f8565b919050565b5f67ffffffffffffffff82111561015d5761015c6100cb565b5b610166826100bb565b9050602081019050919050565b828183375f83830152505050565b5f61019361018e84610143565b610129565b9050828152602081018484840111156101af576101ae6100b7565b5b6101ba848285610173565b509392505050565b5f82601f8301126101d6576101d56100b3565b5b81356101e6848260208601610181565b91505092915050565b5f60208284031215610204576102036100ab565b5b5f82013567ffffffffffffffff811115610221576102206100af565b5b61022d848285016101c2565b91505092915050565b5f81905092915050565b7f4150492055524c3a2000000000000000000000000000000000000000000000005f82015250565b5f610274600983610236565b915061027f82610240565b600982019050919050565b5f81519050919050565b5f5b838110156102b1578082015181840152602081019050610296565b5f8484015250505050565b5f6102c68261028a565b6102d08185610236565b93506102e0818560208601610294565b80840191505092915050565b5f6102f682610268565b915061030282846102bc565b915081905092915050565b5f82825260208201905092915050565b5f6103278261028a565b610331818561030d565b9350610341818560208601610294565b61034a816100bb565b840191505092915050565b5f6020820190508181035f83015261036d818461031d565b90509291505056fea264697066735822122046b08cb4e33a055fb41b58042fef6c8f517616924d386d8d86a23cc924ad820c64736f6c63430008150033",
  "immutableReferences": {},
  "source": "// SPDX-License-Identifier: MIT\r\npragma solidity ^0.8.0;\r\n\r\ncontract OrderAPI {\r\n    // Event to log API responses\r\n    event APIResponse(string response);\r\n\r\n    // Function to simulate API interaction\r\n    function fetchOrderData(string memory apiUrl) public {\r\n        // Emit the API URL as an event\r\n        emit APIResponse(string(abi.encodePacked(\"API URL: \", apiUrl)));\r\n\r\n        // In real scenarios, off-chain code (e.g., Oracles) will handle the request.\r\n    }\r\n}\r\n",
  "sourcePath": "C:\\Users\\mm\\Downloads\\blockchain\\contracts\\OrderAPI.sol",
  "compiler": {
    "name": "solc",
    "version": "0.8.21+commit.d9974bed.Emscripten.clang"
  },
  "schemaVersion": "3.4.16",
  "updatedAt": "2024-12-10T06:58:56.380Z",
  "devdoc": {
    "kind": "dev",
    "methods": {},
    "version": 1
  },
  "userdoc": {
    "kind": "user",
    "methods": {},
    "version": 1
  }
}