{
  "contractName": "UserProducts",
  "abi": [
    {
      "anonymous": false,
      "inputs": [
        {
          "indexed": false,
          "internalType": "string",
          "name": "data",
          "type": "string"
        }
      ],
      "name": "ApiResponse",
      "type": "event"
    },
    {
      "inputs": [],
      "name": "fetchUserProducts",
      "outputs": [],
      "stateMutability": "nonpayable",
      "type": "function"
    }
  ],
  "bytecode": "0x608060405234801561001057600080fd5b50610133806100206000396000f3fe6080604052348015600f57600080fd5b506004361060285760003560e01c8063a317bbd114602d575b600080fd5b60336035565b005b7fed3f86c7d621f12b5e1d8cf1df35889262fa0e82211f423e842730eed5206d2b60405160609060ce565b60405180910390a1565b6000607560388360ec565b91507f41504920726573706f6e73652073686f756c64206265206c6f6767656420686560008301527f7265206279206f66662d636861696e20736572766963657300000000000000006020830152604082019050919050565b6000602082019050818103600083015260e581606a565b9050919050565b60008282526020820190509291505056fea264697066735822122032968fe03b966ab1b5fe0e329fa61cb8fefa804b725efc4b8cfd540cca454cac64736f6c63430008000033",
  "immutableReferences": {},
  "source": "// SPDX-License-Identifier: MIT\r\npragma solidity ^0.8.0;\r\n\r\ncontract UserProducts {\r\n    // Event to log the API response\r\n    event ApiResponse(string data);\r\n\r\n    // Function to simulate interaction with API\r\n    function fetchUserProducts() public {\r\n        // In Solidity, we cannot directly call external APIs.\r\n        // We rely on an external service to fetch the API data\r\n        // and then pass it to this function through an event.\r\n        emit ApiResponse(\"API response should be logged here by off-chain services\");\r\n    }\r\n}\r\n",
  "sourcePath": "C:\\Users\\mm\\Downloads\\blockchain\\contracts\\UserProducts.sol",
  "compiler": {
    "name": "solc",
    "version": "0.8.0+commit.c7dfd78e.Emscripten.clang"
  },
  "schemaVersion": "3.4.16",
  "updatedAt": "2024-12-10T07:07:23.287Z",
  "networkType": "ethereum",
  "devdoc": {
    "kind": "dev",
    "methods": {},
    "version": 1
  },
  "userdoc": {
    "kind": "user",
    "methods": {},
    "version": 1
  }
}