{
  "contractName": "UserOrderAPI",
  "abi": [
    {
      "inputs": [
        {
          "internalType": "address",
          "name": "_oracle",
          "type": "address"
        }
      ],
      "stateMutability": "nonpayable",
      "type": "constructor"
    },
    {
      "anonymous": false,
      "inputs": [
        {
          "indexed": false,
          "internalType": "uint256",
          "name": "userId",
          "type": "uint256"
        },
        {
          "indexed": false,
          "internalType": "string",
          "name": "response",
          "type": "string"
        }
      ],
      "name": "UserDataFetched",
      "type": "event"
    },
    {
      "inputs": [],
      "name": "oracle",
      "outputs": [
        {
          "internalType": "address",
          "name": "",
          "type": "address"
        }
      ],
      "stateMutability": "view",
      "type": "function"
    },
    {
      "inputs": [],
      "name": "owner",
      "outputs": [
        {
          "internalType": "address",
          "name": "",
          "type": "address"
        }
      ],
      "stateMutability": "view",
      "type": "function"
    },
    {
      "inputs": [
        {
          "internalType": "uint256",
          "name": "userId",
          "type": "uint256"
        }
      ],
      "name": "fetchUserData",
      "outputs": [],
      "stateMutability": "nonpayable",
      "type": "function"
    },
    {
      "inputs": [
        {
          "internalType": "uint256",
          "name": "userId",
          "type": "uint256"
        },
        {
          "internalType": "string",
          "name": "response",
          "type": "string"
        }
      ],
      "name": "fulfillUserData",
      "outputs": [],
      "stateMutability": "nonpayable",
      "type": "function"
    }
  ],
  "bytecode": "0x608060405234801561000f575f80fd5b5060405161086a38038061086a83398181016040528101906100319190610114565b805f806101000a81548173ffffffffffffffffffffffffffffffffffffffff021916908373ffffffffffffffffffffffffffffffffffffffff1602179055503360015f6101000a81548173ffffffffffffffffffffffffffffffffffffffff021916908373ffffffffffffffffffffffffffffffffffffffff1602179055505061013f565b5f80fd5b5f73ffffffffffffffffffffffffffffffffffffffff82169050919050565b5f6100e3826100ba565b9050919050565b6100f3816100d9565b81146100fd575f80fd5b50565b5f8151905061010e816100ea565b92915050565b5f60208284031215610129576101286100b6565b5b5f61013684828501610100565b91505092915050565b61071e8061014c5f395ff3fe608060405234801561000f575f80fd5b506004361061004a575f3560e01c80637dc0d1d01461004e5780638da5cb5b1461006c578063a04af2851461008a578063a54c581e146100a6575b5f80fd5b6100566100c2565b604051610063919061032a565b60405180910390f35b6100746100e5565b604051610081919061032a565b60405180910390f35b6100a4600480360381019061009f9190610387565b61010a565b005b6100c060048036038101906100bb91906104ee565b610221565b005b5f8054906101000a900473ffffffffffffffffffffffffffffffffffffffff1681565b60015f9054906101000a900473ffffffffffffffffffffffffffffffffffffffff1681565b60015f9054906101000a900473ffffffffffffffffffffffffffffffffffffffff1673ffffffffffffffffffffffffffffffffffffffff163373ffffffffffffffffffffffffffffffffffffffff1614610199576040517f08c379a0000000000000000000000000000000000000000000000000000000008152600401610190906105a2565b60405180910390fd5b5f8054906101000a900473ffffffffffffffffffffffffffffffffffffffff1673ffffffffffffffffffffffffffffffffffffffff1663c72bd999826040518263ffffffff1660e01b81526004016101f191906105cf565b5f604051808303815f87803b158015610208575f80fd5b505af115801561021a573d5f803e3d5ffd5b5050505050565b5f8054906101000a900473ffffffffffffffffffffffffffffffffffffffff1673ffffffffffffffffffffffffffffffffffffffff163373ffffffffffffffffffffffffffffffffffffffff16146102ae576040517f08c379a00000000000000000000000000000000000000000000000000000000081526004016102a590610632565b60405180910390fd5b7fce6a3e681a70ed39b9d802cc1d8901ab5de86abeac16ebb5e834bd82367d6b8982826040516102df9291906106ba565b60405180910390a15050565b5f73ffffffffffffffffffffffffffffffffffffffff82169050919050565b5f610314826102eb565b9050919050565b6103248161030a565b82525050565b5f60208201905061033d5f83018461031b565b92915050565b5f604051905090565b5f80fd5b5f80fd5b5f819050919050565b61036681610354565b8114610370575f80fd5b50565b5f813590506103818161035d565b92915050565b5f6020828403121561039c5761039b61034c565b5b5f6103a984828501610373565b91505092915050565b5f80fd5b5f80fd5b5f601f19601f8301169050919050565b7f4e487b71000000000000000000000000000000000000000000000000000000005f52604160045260245ffd5b610400826103ba565b810181811067ffffffffffffffff8211171561041f5761041e6103ca565b5b80604052505050565b5f610431610343565b905061043d82826103f7565b919050565b5f67ffffffffffffffff82111561045c5761045b6103ca565b5b610465826103ba565b9050602081019050919050565b828183375f83830152505050565b5f61049261048d84610442565b610428565b9050828152602081018484840111156104ae576104ad6103b6565b5b6104b9848285610472565b509392505050565b5f82601f8301126104d5576104d46103b2565b5b81356104e5848260208601610480565b91505092915050565b5f80604083850312156105045761050361034c565b5b5f61051185828601610373565b925050602083013567ffffffffffffffff81111561053257610531610350565b5b61053e858286016104c1565b9150509250929050565b5f82825260208201905092915050565b7f4e6f7420617574686f72697a65640000000000000000000000000000000000005f82015250565b5f61058c600e83610548565b915061059782610558565b602082019050919050565b5f6020820190508181035f8301526105b981610580565b9050919050565b6105c981610354565b82525050565b5f6020820190506105e25f8301846105c0565b92915050565b7f4f6e6c79204f7261636c652063616e2063616c6c2074686973000000000000005f82015250565b5f61061c601983610548565b9150610627826105e8565b602082019050919050565b5f6020820190508181035f83015261064981610610565b9050919050565b5f81519050919050565b5f5b8381101561067757808201518184015260208101905061065c565b5f8484015250505050565b5f61068c82610650565b6106968185610548565b93506106a681856020860161065a565b6106af816103ba565b840191505092915050565b5f6040820190506106cd5f8301856105c0565b81810360208301526106df8184610682565b9050939250505056fea264697066735822122093d30ebb4aa6e0de612b2e22dfd5eb4117ef412d4e6c06e7c7b070b94bd348c164736f6c63430008150033",
  "immutableReferences": {},
  "source": "// SPDX-License-Identifier: MIT\npragma solidity ^0.8.0;\n\ninterface IOracle {\n    function requestUserData(uint256 userId) external;\n}\n\ncontract UserOrderAPI {\n    address public oracle;\n    address public owner;\n\n    // Event to emit API data\n    event UserDataFetched(uint256 userId, string response);\n\n    modifier onlyOwner() {\n        require(msg.sender == owner, \"Not authorized\");\n        _;\n    }\n\n    constructor(address _oracle) {\n        oracle = _oracle;\n        owner = msg.sender;\n    }\n\n    // Request user data from Oracle\n    function fetchUserData(uint256 userId) public onlyOwner {\n        IOracle(oracle).requestUserData(userId);\n    }\n\n    // Oracle will call this function with API response\n    function fulfillUserData(uint256 userId, string memory response) public {\n        require(msg.sender == oracle, \"Only Oracle can call this\");\n        emit UserDataFetched(userId, response);\n    }\n}\n",
  "sourcePath": "C:\\Users\\mm\\Downloads\\blockchain\\contracts\\UserOrderAPI.sol",
  "compiler": {
    "name": "solc",
    "version": "0.8.21+commit.d9974bed.Emscripten.clang"
  },
  "schemaVersion": "3.4.16",
  "updatedAt": "2024-12-10T06:58:56.389Z",
  "devdoc": {
    "kind": "dev",
    "methods": {},
    "version": 1
  },
  "userdoc": {
    "kind": "user",
    "methods": {},
    "version": 1
  }
}